:020000040800F2
:1000000018080020B90400081505000815050008A7
:10001000150500081505000815050008000000007A
:1000200000000000000000000000000015050008AE
:10003000150500080000000015050008150500085A
:100040001505000815050008150500081505000828
:100050001505000815050008150500081505000818
:100060001505000815050008150500081505000808
:1000700015050008150500081505000815050008F8
:1000800015050008150500081505000815050008E8
:1000900015050008150500081505000815050008D8
:1000A00015050008150500081505000815050008C8
:1000B0004D05000815050008150500081505000880
:1000C00015050008150500081505000815050008A8
:1000D0001505000815050008150500087D05000830
:1000E0001505000815050008150500081505000888
:1000F0001505000815050008150500081505000878
:100100001505000815050008150500081505000867
:100110001505000815050008150500081505000857
:100120001505000815050008150500081505000847
:100130001505000815050008150500081505000837
:100140001505000815050008150500081505000827
:100150001505000815050008150500081505000817
:100160001505000815050008150500081505000807
:1001700015050008150500081505000815050008F7
:10018000150500081505000880B58AB000AF786035
:10019000396000237B6200233B620023FB61002364
:1001A000BB617B681B8A9BB27B627B6A23F44053F2
:1001B0007B623B68DB881A467B6A13437B627B6AFF
:1001C0009AB27B681A827B689B899BB27B627B6A4E
:1001D00023F4B05323F00C037B623B689A883B689E
:1001E0001B8913439AB23B685B8913439BB21A463F
:1001F0007B6A13437B627B6A9AB27B689A817B68D5
:100200009B8A9BB27B627B6A23F440737B623B6870
:100210009B891A467B6A13437B627B6A9AB27B682E
:100220009A8207F10803184600F082FC7B68304A86
:10023000934203D07B682F4A934202D17B693B6291
:1002400001E03B693B627B689B899BB21BB2002B40
:100250000CDA3A6A13469B0013449A001A443B682E
:100260001B685B00B2FBF3F3FB610BE03A6A1346D9
:100270009B0013449A001A443B681B689B00B2FB26
:10028000F3F3FB61FB691C4AA2FB03235B091B011F
:100290007B627B6A1B09642202FB03F3FA69D31AAF
:1002A000BB617B689B899BB21BB2002B0CDABB69DC
:1002B000DB003233104AA2FB03235B0903F0070380
:1002C0007A6A13437B620BE0BB691B0132330A4A33
:1002D000A2FB03235B0903F00F037A6A13437B62DB
:1002E0007B6A9AB27B681A8100BF2837BD4680BD01
:1002F00000100140001401401F85EB5180B483B011
:1003000000AF78600B46FB70FB78002B08D07B6851
:100310009B899BB243F400539AB27B689A8107E0B1
:100320007B689B899BB223F400539AB27B689A81C5
:1003300000BF0C37BD4680BC704700BF80B487B09B
:1003400000AF78600B467B8013467B7000233B61D7
:100350000023FB600023BB6000237B617B687B6123
:100360007B88DBB25B09DBB23B617B8803F01F0358
:10037000FB600122FB6802FA03F3BB603B69012BBF
:1003800003D17B690C337B6109E03B69022B03D10C
:100390007B6910337B6102E07B6914337B617B787E
:1003A000002B06D07B697A691168BA680A431A6023
:1003B00006E07B697A691168BA68D2430A401A601C
:1003C00000BF1C37BD4680BC704700BF80B487B0FB
:1003D00000AF78600B467B800023FB6000237B61CD
:1003E0000023BB600023FB747B88DBB25B09DBB2BC
:1003F000BB607B8803F01F037B6101227B6902FAEB
:1004000003F37B61BB68012B07D17B689B899BB29F
:100410001A467B6913407B6111E0BB68022B07D150
:100420007B681B8A9BB21A467B6913407B6106E09E
:100430007B689B8A9BB21A467B6913407B617B88F1
:100440001B0A9BB2FB600122FB6802FA03F3FB600C
:100450007B681B889BB21A46FB681340FB607B6974
:10046000002B05D0FB68002B02D00123FB7401E0B8
:100470000023FB74FB7C18461C37BD4680BC7047CC
:1004800080B485B000AF78600B467B800023FB8191
:100490000023BB817B881B0AFB81FB89012202FAB6
:1004A00003F3BB81BB89DB439AB27B681A8000BF30
:1004B0001437BD4680BC704780B582B000AF104B8A
:1004C0007B60104B3B6007E03B681A1D3A607A681E
:1004D000111D796012681A603B680B4A9342F3D38E
:1004E0000A480B494FF000028842B8BF40F8042B7D
:1004F000FADB00F0DFF900BF0837BD4680BD00BF62
:1005000084160008000000201400002014000020C1
:100510001800002080B400AFFEE700BF80B483B0B5
:1005200000AF0346FB71084997F907305B09FA7978
:1005300002F01F02012000FA02F241F8232000BF5E
:100540000C37BD4680BC704700E100E080B500AFCD
:1005500001214FF0804001F05BF80346002B09D0E9
:10056000054B1B680133044A136001214FF08040A2
:1005700001F078F800BF80BD1400002080B500AF06
:1005800040F225510948FFF721FF0346002B0AD00E
:10059000064B9B889BB2DAB2054B1A7040F225518C
:1005A0000248FFF76DFF00BF80BD00BF004800405C
:1005B0000000002080B500AF0121022000F062FBA6
:1005C0000121042000F05EFB01214FF4802000F0A7
:1005D00077FB0121012000F073FB0121022000F0D4
:1005E0006FFB0121042000F06BFB00BF80BD00BF4A
:1005F00080B582B000AF4FF4F8733B6002233B71CB
:1006000003237B710023BB710023FB713B4619461A
:10061000164800F073FB4FF480733B603B4619466D
:10062000134800F06BFB02220421104800F0F4FB99
:10063000022205210D4800F0EFFB022208210C48A0
:1006400000F0EAFB02220621084800F0E5FB022246
:100650000721064800F0E0FB02220821034800F0D1
:10066000DBFB00BF0837BD4680BD00BF0004024071
:100670000008024080B588B000AF4FF44063BB6112
:1006800002233B770023BB770123FB7702237B7791
:1006900007F1180319461E4800F030FB07220A2113
:1006A0001B4800F0B9FB07220B21194800F0B4FBEE
:1006B0004FF41653BB600023BB810023FB81002352
:1006C0003B820023BB820C237B8207F1080319467F
:1006D0001048FFF759FD01210E48FFF70FFE0122D8
:1006E00040F225510B48FFF729FE27233B710023D9
:1006F0007B710023BB710123FB713B1D184600F089
:100700007BFC2720FFF70AFF00BF2037BD4680BDD6
:10071000000802400048004080B584B000AF532379
:10072000BB800023FB8040F2E733BB600023BB812A
:100730000023BB733B1D19464FF0804000F0BCFC0A
:100740001C233B7001237B700123BB700123FB70D2
:100750003B46184600F050FC012201214FF080403A
:1007600000F032FF01214FF0804000F07BFF532367
:10077000BB800023FB8044F61F63BB600023BB816A
:100780000023BB733B1D19460F4800F095FC012167
:100790000D4800F01BFD5323BB800023FB8044F673
:1007A0001F63BB600023BB810023BB733B1D194645
:1007B000064800F081FC0121044800F007FD00BF5D
:1007C0001037BD4680BD00BF000400400008004057
:1007D00080B586B000AF6023BB800123FB8000237F
:1007E0003B8240F2DB53FB603B1D1946274800F07B
:1007F0000DFD0821254800F091FE40F2DB53FB601F
:100800003B1D1946214800F07BFD08211F4800F0E0
:10081000A1FE40F2DB53FB603B1D19461B4800F074
:10082000F7FD0821194800F0B3FE40F2DB53FB60EE
:100830003B1D1946164800F0E9FC0821144800F059
:100840006DFE40F2DB53FB603B1D1946104800F083
:1008500057FD08210E4800F07DFE40F2DB53FB609F
:100860003B1D19460A4800F0D3FD0821084800F056
:100870008FFE0121054800F089FC0121044800F0A9
:1008800085FC00BF1837BD4680BD00BF0004004096
:100890000008004080B500AF00F006FBFFF78AFEBD
:1008A000FFF7A6FEFFF7E6FEFFF736FFFFF790FF24
:1008B00000BF80BD80B500AFFFF7ECFF994B1B7800
:1008C000203B582BFAD801A252F823F0F10A000875
:1008D000BD080008BD080008BD080008BD080008E4
:1008E000BD080008BD080008BD080008BD080008D4
:1008F000BD080008BD080008BD080008BD080008C4
:10090000BD080008BD080008BD080008BD080008B3
:10091000BD080008BD080008BD080008BD080008A3
:10092000BD080008BD080008BD080008BD08000893
:10093000BD080008BD080008BD080008BD08000883
:10094000BD080008BD080008BD080008BD08000873
:10095000BD080008BD080008BD080008BD08000863
:10096000BD080008BD080008BD080008BD08000853
:10097000BD080008BD080008BD080008BD08000843
:10098000BD080008BD080008BD080008BD08000833
:10099000BD080008BD080008BD080008BD08000823
:1009A000BD080008BD080008BD080008BD08000813
:1009B000BD080008BD080008BD080008BD08000803
:1009C000BD080008BD080008BD080008BD080008F3
:1009D000710A0008BD080008E10A0008510A000871
:1009E000310A0008610A0008910A0008A10A0008FB
:1009F000BD080008B10A0008C10A0008BD080008C7
:100A0000BD080008BD080008BD080008BD080008B2
:100A1000BD080008410A0008810A0008BD08000856
:100A2000BD080008BD080008BD080008D10A00087C
:100A30003D4B40F2BB225A633A4B6E221A7070E073
:100A4000394B40F6FB025A63364B6E221A7068E04F
:100A5000354B40F2BB229A63324B6E221A7060E033
:100A6000314B40F6FB029A632E4B6E221A7058E00F
:100A70002D4B40F2BB22DA632A4B6E221A7050E0F3
:100A8000294B40F6FB02DA63264B6E221A7048E0CF
:100A9000264B40F2BB225A63224B6E221A7040E072
:100AA000224B40F6FB025A631E4B6E221A7038E04E
:100AB0001E4B40F2BB229A631A4B6E221A7030E032
:100AC0001A4B40F6FB029A63164B6E221A7028E00E
:100AD000164B40F2BB22DA63124B6E221A7020E0F2
:100AE000124B40F6FB02DA630E4B6E221A7018E0CE
:100AF0000D4B40F2DB525A630B4B40F2DB529A63D0
:100B00000A4B40F2DB525A63084B40F2DB529A63C5
:100B1000054B40F2DB52DA63044B40F2DB52DA63FE
:100B200000BFCBE6000000200004004000080040A9
:100B300080B489B000AF78600023BB6100237B6183
:100B40000023FB6102233B610023FB600223BB60A7
:100B5000484B9B6803F00C03BB61BB69042B07D0B7
:100B6000082B09D0002B3FD17B68434A1A603FE035
:100B70007B68424A1A603BE03E4B5B6803F48003AB
:100B80009B0DFB603B4B5B6803F03F03BB60FB6866
:100B9000002B0DD0394ABB68B2FBF3F2354B5968D4
:100BA00047F6C0730B409B0903FB02F3FB610CE0AB
:100BB000314ABB68B2FBF3F22E4B596847F6C0735B
:100BC0000B409B0903FB02F3FB612A4B5B6803F4B8
:100BD00040331B0C01335B003B61FA693B69B2FB9C
:100BE000F3F27B681A6003E07B68234A1A6000BF57
:100BF000204B9B6803F0F003BB61BB691B09BB6121
:100C00001F4ABB6913441B78DBB27B617B681A689F
:100C10007B69DA407B685A60164B9B6803F4E053AB
:100C2000BB61BB699B0ABB61154ABB6913441B7856
:100C3000DBB27B617B685A687B69DA407B689A60CB
:100C40000C4B9B6803F46043BB61BB695B0BBB61EE
:100C50000B4ABB6913441B78DBB27B617B685A6823
:100C60007B69DA407B68DA6000BF2437BD4680BC10
:100C7000704700BF003802400024F40000127A00E0
:100C80000400002080B483B000AF78600B46FB7096
:100C9000FB78002B06D00949084B1A6B7B6813437D
:100CA0000B6306E00549054B1A6B7B68DB43134079
:100CB0000B6300BF0C37BD4680BC70470038024054
:100CC00080B483B000AF78600B46FB70FB78002BDC
:100CD00006D00949084B1A6C7B6813430B6406E085
:100CE0000549054B1A6C7B68DB4313400B6400BF5E
:100CF0000C37BD4680BC70470038024080B487B0D6
:100D000000AF7860396000237B6100233B610023E2
:100D1000FB6000237B6176E001227B6902FA03F32A
:100D20003B613B681A683B691340FB60FA683B69AA
:100D30009A4265D17B681A687B695B00032101FADE
:100D400003F3DB431A407B681A607B681A683B68D0
:100D50001B7919467B695B0001FA03F31A437B6830
:100D60001A603B681B79012B03D03B681B79022B6F
:100D70002ED17B689A687B695B00032101FA03F33B
:100D8000DB431A407B689A607B689A683B685B79B2
:100D900019467B695B0001FA03F31A437B689A608A
:100DA0007B685A687B699BB2194601238B40DB4301
:100DB0001A407B685A607B685B683A689279114692
:100DC0007A6992B201FA02F292B21A437B685A60CF
:100DD0007B68DA687B699BB25B00032101FA03F34D
:100DE000DB431A407B68DA607B68DA683B68DB7952
:100DF00019467B695B0001FA03F31A437B68DA60EA
:100E00007B6901337B617B690F2B85D900BF1C3760
:100E1000BD4680BC704700BF80B485B000AF78602D
:100E20000B467B8013467B700023FB600023BB6076
:100E30007A787B8803F007039B0002FA03F3FB60D8
:100E40007B88DB089BB218467B88DB089BB21A467E
:100E50007B68083253F822207B8803F007039B004D
:100E60000F2101FA03F3DB4302EA03017B6800F17F
:100E7000080243F822107B88DB089BB21A467B6885
:100E8000083253F82220FB681343BB607B88DB08E1
:100E90009BB21A467B680832B96843F8221000BF3B
:100EA0001437BD4680BC704780B500AF124A124B64
:100EB0001B6843F0010313600F4B00229A600E4A37
:100EC0000D4B1B6823F0847323F4803313600A4BAB
:100ED0000A4A5A60084A084B1B6823F480231360AF
:100EE000054B0022DA6000F00DF8054B4FF0006270
:100EF0009A6000BF80BD00BF00380240103000245F
:100F000000ED00E080B483B000AF00237B600023DD
:100F10003B60354A344B1B6843F480331360324BDB
:100F20001B6803F400333B607B6801337B603B68E4
:100F3000002B03D17B68B3F5A06FF0D12A4B1B685F
:100F400003F40033002B02D001233B6001E00023B7
:100F50003B603B68012B42D1234A234B1B6C43F07F
:100F600080531364214A214B1B6843F48043136070
:100F70001D4A1D4B9B6893601B4A1B4B9B6843F4A7
:100F800000439360184A184B9B6843F4A053936046
:100F9000154B174A5A60144A134B1B6843F0807371
:100FA000136000BF104B1B6803F00073002BF9D0D7
:100FB000104B40F205621A600B4A0B4B9B6823F002
:100FC00003039360084A084B9B6843F00203936055
:100FD00000BF054B9B6803F00C03082BF9D100BF41
:100FE0000C37BD4680BC704700380240007000409E
:100FF00008544007003C024080B485B000AF7860E0
:101000000023FB730023BB730F237B737B68DB78A8
:10101000002B38D0264BDB68DB4303F4E0631B0A6C
:10102000FB73FB7BC3F10403BB737A7BFB7B42FA4C
:1010300003F37B737B685B781A46BB7B02FA03F38E
:10104000FB737B689A787B7B1340DAB2FB7B13439C
:10105000FB73FB7B1B01FB73164A7B681B781344F5
:10106000FA7B83F80023134A7B681B785B09DBB2A9
:1010700018467B681B7803F01F03012101FA03F374
:1010800042F820300FE00B497B681B785B09DBB22C
:1010900018467B681B7803F01F0301229A4000F179
:1010A000200341F8232000BF1437BD4680BC7047A1
:1010B00000ED00E000E100E080B485B000AF7860B2
:1010C00039600023FB817B681B88FB817B68284A91
:1010D000934213D07B68274A93420FD07B68B3F1C9
:1010E000804F0BD07B68244A934207D07B68234A09
:1010F000934203D07B68224A934208D1FB8923F0B4
:101100007003FB813B685A88FB891343FB817B6832
:101110001C4A93420CD07B681B4A934208D0FB893F
:1011200023F44073FB813B681A89FB891343FB81DD
:101130007B68FA891A803B685A687B68DA623B6888
:101140001A887B681A857B68094A934203D07B68BA
:10115000084A934204D13B689B7A9AB27B681A860C
:101160007B6801229A8200BF1437BD4680BC70475D
:10117000000001400004014000040040000800405D
:10118000000C0040001000400014004080B483B008
:1011900000AF78600B46FB70FB78002B08D07B68B3
:1011A0001B889BB243F080039AB27B681A8007E0E9
:1011B0007B681B889BB223F080039AB27B681A80FD
:1011C00000BF0C37BD4680BC704700BF80B483B001
:1011D00000AF78600B46FB70FB78002B08D07B6873
:1011E0001B889BB243F001039AB27B681A8007E028
:1011F0007B681B889BB223F001039AB27B681A803C
:1012000000BF0C37BD4680BC704700BF80B485B0BE
:1012100000AF7860396000237B810023FB810023CD
:10122000BB817B681B8C9BB223F001039AB27B6865
:101230001A847B681B8CFB817B689B88BB817B68E5
:101240001B8B7B817B8923F070037B817B8923F05F
:1012500003037B813B681A887B8913437B81FB896D
:1012600023F00203FB813B689A89FB891343FB81CE
:101270003B685A88FB891343FB817B681E4A934273
:1012800003D07B681D4A934223D1FB8923F00803D6
:10129000FB813B68DA89FB891343FB81FB8923F0DF
:1012A0000403FB813B689A88FB891343FB81BB895C
:1012B00023F48073BB81BB8923F40073BB813B683B
:1012C0001A8ABB891343BB813B685A8ABB89134383
:1012D000BB817B68BA899A807B687A891A833B686C
:1012E0009A687B685A637B68FA891A8400BF14374E
:1012F000BD4680BC704700BF0000014000040140B3
:1013000080B485B000AF7860396000237B81002312
:10131000FB810023BB817B681B8C9BB223F01003F5
:101320009AB27B681A847B681B8CFB817B689B88E4
:10133000BB817B681B8B7B817B8923F4E0437B81B2
:101340007B8923F440737B813B681B881B029AB224
:101350007B8913437B81FB8923F02003FB813B685E
:101360009B891B019AB2FB891343FB813B685B8815
:101370001B019AB2FB891343FB817B68224A93428B
:1013800003D07B68214A93422BD1FB8923F0800351
:10139000FB813B68DB891B019AB2FB891343FB810C
:1013A000FB8923F04003FB813B689B881B019AB2B9
:1013B000FB891343FB81BB8923F48063BB81BB8919
:1013C00023F40063BB813B681B8A9B009AB2BB89F4
:1013D0001343BB813B685B8A9B009AB2BB89134372
:1013E000BB817B68BA899A807B687A891A833B685B
:1013F0009A687B689A637B68FA891A8400BF1437FD
:10140000BD4680BC704700BF0000014000040140A1
:1014100080B485B000AF7860396000237B81002301
:10142000FB810023BB817B681B8C9BB223F4807300
:101430009AB27B681A847B681B8CFB817B689B88D3
:10144000BB817B689B8B7B817B8923F070037B81D5
:101450007B8923F003037B813B681A887B891343D4
:101460007B81FB8923F40073FB813B689B891B0212
:101470009AB2FB891343FB813B685B881B029AB2DB
:10148000FB891343FB817B68224A934203D07B682C
:10149000214A93422BD1FB8923F40063FB813B68F3
:1014A000DB891B029AB2FB891343FB81FB8923F47E
:1014B0008063FB813B689B881B029AB2FB891343C4
:1014C000FB81BB8923F48053BB81BB8923F4005388
:1014D000BB813B681B8A1B019AB2BB891343BB814A
:1014E0003B685B8A1B019AB2BB891343BB817B6853
:1014F000BA899A807B687A899A833B689A687B6804
:10150000DA637B68FA891A8400BF1437BD4680BC51
:10151000704700BF000001400004014080B485B066
:1015200000AF78600B467B800023FB817B681B8BC0
:10153000FB81FB8923F00803FB81FA897B88134335
:10154000FB817B68FA891A8300BF1437BD4680BCD3
:10155000704700BF80B485B000AF78600B467B80D9
:101560000023FB817B681B8BFB81FB8923F40063D9
:10157000FB817B881B029AB2FB891343FB817B684A
:10158000FA891A8300BF1437BD4680BC704700BF7C
:1015900080B485B000AF78600B467B800023FB8170
:1015A0007B689B8BFB81FB8923F00803FB81FA8915
:1015B0007B881343FB817B68FA899A8300BF1437C9
:1015C000BD4680BC704700BF80B483B000AF786078
:1015D0000B467B8013467B707B78002B08D07B68A2
:1015E0009B899AB27B8813439AB27B689A8109E0FF
:1015F0007B689B899AB27B88DB439BB213409AB28B
:101600007B689A8100BF0C37BD4680BC704700BF25
:1016100080B485B000AF78600B467B800023FB73FD
:101620000023BB8100237B817B681B8A9AB27B8865
:101630001340BB817B689B899AB27B8813407B8176
:10164000BB89002B05D07B89002B02D00123FB73C3
:1016500001E00023FB73FB7B18461437BD4680BCBA
:10166000704700BF80B483B000AF78600B467B80CA
:101670007B88DB439AB27B681A8200BF0C37BD4679
:0416800080BC704773
:101684006E000000000000000102030401020304D4
:041694000607080934
:0400000508000000EF
:00000001FF
